:0400000063EF00F0BA
:06000800298265EF00F003
:100018002980D8CF13F0E8CF14F0E0CF15F0FACF4D
:1000280016F0FBCF17F0E9CF18F0EACF19F0E1CFBF
:100038001AF0E2CF1BF0D9CF1CF0DACF1DF0F3CFC6
:100048001EF0F4CF1FF0F6CF20F0F7CF21F0F8CF55
:1000580022F0F5CF23F029C024F02AC025F02BC0C8
:1000680026F02CC027F027C02CF026C02BF025C086
:100078002AF024C029F023C0F5FF22C0F8FF21C0D0
:10008800F7FF20C0F6FF1FC0F4FF1EC0F3FF1DC01E
:10009800DAFF1CC0D9FF1BC0E2FF1AC0E1FF19C07C
:1000A800EAFF18C0E9FF17C0FBFF16C0FAFF15C02A
:1000B800E0FF14C0E8FF13C0D8FF29901000B9EF83
:1000C80000F0FACF01F0FBCF02F0E9CF03F0EACF5E
:1000D80004F0E1CF05F0E2CF06F0D9CF07F0DACF90
:1000E80008F0F3CF09F0F4CF0AF0F6CF0BF0F7CF12
:1000F8000CF0F8CF0DF0F5CF0EF029C00FF02AC0A4
:1001080010F02BC011F02CC012F012C02CF011C04E
:100118002BF010C02AF00FC029F00EC0F5FF0DC05B
:10012800F8FF0CC0F7FF0BC0F6FF0AC0F4FF09C0C8
:10013800F3FF08C0DAFF07C0D9FF06C0E2FF05C019
:10014800E1FF04C0EAFF03C0E9FF02C0FBFF01C0F2
:10015800FAFF29921100000E286EBFEC00F0BEECE9
:1001680000F0282A28C089FFFCD72990299200018D
:08017800AFEF00F012001200CD
:020000040020DA
:08000000FFFFFFFFFFFFFFFF00
:020000040030CA
:0E000000FF000000FF0080FF00000000000075
:00000001FF
