:0400000063EF00F0BA
:06000800378265EF00F0F5
:100018003780D8CF13F0E8CF14F0E0CF15F0FACF3F
:1000280016F0FBCF17F0E9CF18F0EACF19F0E1CFBF
:100038001AF0E2CF1BF0D9CF1CF0DACF1DF0F3CFC6
:100048001EF0F4CF1FF0F6CF20F0F7CF21F0F8CF55
:1000580022F0F5CF23F037C024F038C025F039C09E
:1000680026F03AC027F027C03AF026C039F025C05C
:1000780038F024C037F023C0F5FF22C0F8FF21C0B4
:10008800F7FF20C0F6FF1FC0F4FF1EC0F3FF1DC01E
:10009800DAFF1CC0D9FF1BC0E2FF1AC0E1FF19C07C
:1000A800EAFF18C0E9FF17C0FBFF16C0FAFF15C02A
:1000B800E0FF14C0E8FF13C0D8FF3790100039EFF5
:1000C80001F0FACF01F0FBCF02F0E9CF03F0EACF5D
:1000D80004F0E1CF05F0E2CF06F0D9CF07F0DACF90
:1000E80008F0F3CF09F0F4CF0AF0F6CF0BF0F7CF12
:1000F8000CF0F8CF0DF0F5CF0EF037C00FF038C088
:1001080010F039C011F03AC012F012C03AF011C024
:1001180039F010C038F00FC037F00EC0F5FF0DC031
:10012800F8FF0CC0F7FF0BC0F6FF0AC0F4FF09C0C8
:10013800F3FF08C0DAFF07C0D9FF06C0E2FF05C019
:10014800E1FF04C0EAFF03C0E9FF02C0FBFF01C0F2
:10015800FAFF3792110046EC01F03EEC01F02CEC6E
:1001680001F022EC01F02E0E286E000E296E000E12
:100178002B6E030E2A6E0BEC01F0000E326E000E91
:10018800316E500E315CC30E3258D8B003D0314AAC
:10019800322AF7D72E0E296E000E2A6EF1EC00F0E7
:1001A800000E346E000E336E500E335CC30E34589E
:1001B800D8B003D0334A342AF7D7000E33EC01F015
:1001C800000E366E000E356E500E355CC30E365876
:1001D800D8B0C9D7354A362AF7D7000E2C6E000E8C
:1001E8002B6E0BD02B502924D96E2C502A20DA6E76
:1001F800DF5033EC01F02B4A2C2A2B502924D96EDE
:100208002C502A20DA6EDF50D8B41200EBD7000E3B
:100218002D6E000E2C6E0BD02C502824D96E2D502C
:100228002920DA6E43EC01F0DF6E2C4A2D2A2A5081
:100238002C5C2B502D58D8B01200EED7000EB86E9B
:10024800240EAC6E900EAB6E190EAF6E9D8A120026
:10025800000E926EC00E936EC00E946E1200286E41
:10026800ACA2FED728C0ADFF12003790379200012C
:10027800AFEF00F0C70ED56E3D0ED66E12009E5041
:0A028800AE501200560ED36E1200A5
:020000040020DA
:08000000FFFFFFFFFFFFFFFF00
:020000040030CA
:0E000000FF281F3CFF3F81FF0FC00FE00F40A5
:00000001FF
