:0400000063EF00F0BA
:060008003A826FEF06F0E2
:100018003A80D8CF13F0E8CF14F0E0CF15F0FACF3C
:1000280016F0FBCF17F0E9CF18F0EACF19F0E1CFBF
:100038001AF0E2CF1BF0D9CF1CF0DACF1DF0F3CFC6
:100048001EF0F4CF1FF0F6CF20F0F7CF21F0F8CF55
:1000580022F0F5CF23F03AC024F03BC025F03CC095
:1000680026F03DC027F027C03DF026C03CF025C053
:100078003BF024C03AF023C0F5FF22C0F8FF21C0AE
:10008800F7FF20C0F6FF1FC0F4FF1EC0F3FF1DC01E
:10009800DAFF1CC0D9FF1BC0E2FF1AC0E1FF19C07C
:1000A800EAFF18C0E9FF17C0FBFF16C0FAFF15C02A
:1000B800E0FF14C0E8FF13C0D8FF3A901000B9EF72
:1000C80006F0AECFB2F0240E0001B219D8A47AEF30
:1000D80005F0010EFF6F1200300EAD6E0A0EAD6E08
:1000E8000D0EAD6E1200310EAD6E470EB219D8A4CA
:1000F80002D0FF2B1200000EFF6F1200320EAD6E01
:10010800500EB219D8A402D0FF2B1200000EFF6FB8
:100118001200330EAD6E520EB219D8A402D0FF2BC6
:100128001200000EFF6F1200340EAD6E2C0EB219C5
:10013800D8A41200FF2B1200350EAD6E2F0EB2653B
:1001480003D0320EB26503D0000EFF6F1200B2C0AA
:10015800FAF0FB6BFF2B1200360EAD6E2F0EB26558
:1001680003D0390EB26503D0000EFF6F1200010EE6
:10017800B225F86FF96B000EF923FF2B1200370E2A
:10018800AD6E2F0EB26503D0350EB26503D0000EEA
:10019800FF6F1200B2C0F4F0F56BFF2B1200380E9F
:1001A800AD6E2F0EB26503D0390EB26503D0000EC6
:1001B800FF6F1200B2C0F6F0F76BFF2B1200390E7A
:1001C800AD6E2F0EB26503D0350EB26503D0000EAA
:1001D800FF6F1200B2C0F2F0F36BFF2B1200410E5A
:1001E800AD6E2F0EB26503D0390EB26503D0000E86
:1001F800FF6F1200B2C0F0F0F16BFF2B1200420E3D
:10020800AD6E2C0EB219D8A41200FF2B1200430EAB
:10021800AD6E410EB219D8B403D0000EFF6F1200B4
:10022800B2C0FEF0FF2B1200440EAD6E2C0EB219B8
:10023800D8A402D0FF2B1200000EFF6F1200450E4B
:10024800AD6E2F0EB26503D0390EB26503D0000E25
:10025800FF6F1200B2C0EEF0EF6BFF2B1200460EDC
:10026800AD6E2F0EB26503D0390EB26503D0000E05
:10027800FF6F1200B2C0ECF0ED6BFF2B1200470EBF
:10028800AD6E2F0EB26503D0390EB26503D0000EE5
:10029800FF6F1200B2C0EAF0EB6BFF2B1200480EA2
:1002A800AD6E2F0EB26503D0390EB26503D0000EC5
:1002B800FF6F1200B2C0E8F0E96BFF2B1200490E85
:1002C800AD6E2E0EB219D8B403D0000EFF6F120017
:1002D800B2C0E6F0E76BFF2B12004A0EAD6E2F0E90
:1002E800B26503D0390EB26503D0000EFF6F12005D
:1002F800B2C0E4F0E56BFF2B12004B0EAD6E2F0E73
:10030800B26503D0390EB26503D0000EFF6F12003C
:10031800B2C0E2F0E36BFF2B12004C0EAD6E2F0E55
:10032800B26503D0390EB26503D0000EFF6F12001C
:10033800B2C0E0F0E16BFF2B12004D0EAD6E2F0E38
:10034800B26503D0390EB26503D0000EFF6F1200FC
:10035800B2C0DEF0DF6BFF2B12004E0EAD6E2C0E1E
:10036800B219D8B403D0000EFF6F1200FF2B120091
:100378004F0EAD6E4E0EB219D8B407D0530EB21947
:10038800D8B403D0000EFF6F1200B2C0FCF0FF2BF0
:100398001200500EAD6E2C0EB26FFF2B1200510ED4
:1003A800AD6E2F0EB26503D0390EB26503D0000EC4
:1003B800FF6F1200B2C0DCF0DD6BFF2B1200520E93
:1003C800AD6E2F0EB26503D0390EB26503D0000EA4
:1003D800FF6F1200B2C0DAF0DB6BFF2B1200530E76
:1003E800AD6E2F0EB26503D0390EB26503D0000E84
:1003F800FF6F1200B2C0D8F0D96BFF2B1200540E59
:10040800AD6E2F0EB26503D0390EB26503D0000E63
:10041800FF6F1200B2C0D6F0D76BFF2B1200550E3B
:10042800AD6E2F0EB26503D0390EB26503D0000E43
:10043800FF6F1200B2C0D4F0D56BFF2B1200560E1E
:10044800AD6E2E0EB219D8B403D0000EFF6F120095
:10045800B2C0D2F0D36BFF2B1200570EAD6E2F0E29
:10046800B26503D0390EB26503D0000EFF6F1200DB
:10047800B2C0D0F0D16BFF2B1200580EAD6E2F0E0C
:10048800B26503D0390EB26503D0000EFF6F1200BB
:10049800B2C038F0396AFF2B1200590EAD6E2F0E1C
:1004A800B26503D0390EB26503D0000EFF6F12009B
:1004B800B2C036F0376AFF2B12005A0EAD6E2F0EFF
:1004C800B26503D0390EB26503D0000EFF6F12007B
:1004D800B2C034F0356AFF2B1200610EAD6E2C0EDF
:1004E800B219D8B403D0000EFF6F1200FF2B120010
:1004F800620EAD6E450EB219D8B407D0570EB219B8
:10050800D8B403D0000EFF6F1200B2C0FDF0FF2B6D
:100518001200630EAD6E2C0EB219D8A41200FF2B78
:100528001200640EAD6E2C0EB219D8A41200FF2B67
:100538001200650EAD6E2C0EB219D8A41200FF2B56
:100548001200660EAD6E2F0EB26503D0390EB2657D
:1005580003D0000EFF6F1200B2C032F0336AFF2BD7
:100568001200670EAD6E2F0EB26503D0390EB2655C
:1005780003D0000EFF6F1200B2C030F0316AFF2BBB
:100588001200680EAD6E2F0EB26503D0390EB2653B
:1005980003D0000EFF6F1200B2C02EF02F6AFF2B9F
:1005A8001200690EAD6E2F0EB26503D0390EB2651A
:1005B80003D0000EFF6F1200B2C02CF02D6AFF2B83
:1005C80012006A0EAD6E2F0EB26503D0390EB265F9
:1005D80003D0000EFF6F1200B2C02AF02B6AFF2B67
:1005E80012006B0EAD6E2F0EB26503D0390EB265D8
:1005F80005D0000EFF6F210EAD6E1200B2C028F0BC
:10060800296A7C0EAD6E000E616F000E606F02D01D
:10061800604B612B880E605D130E6159D8A0F8D726
:10062800FAC0ADFF000E636F000E626F02D0624B1E
:10063800632B880E625D130E6359D8A0F8D7F8C0F3
:10064800ADFF000E656F000E646F880E645D130EBB
:100658006559D8B003D0644B652BF7D7480EAD6EFB
:10066800000E676F000E666F02D0664B672B880E10
:10067800665D130E6759D8A0F8D7F4C0ADFF000E19
:10068800696F000E686F02D0684B692B880E685D31
:10069800130E6959D8A0F8D7F6C0ADFF000E6B6FDE
:1006A800000E6A6F880E6A5D130E6B59D8B003D0BE
:1006B8006A4B6B2BF7D76D0EAD6E000E6D6F000E8B
:1006C8006C6F02D06C4B6D2B880E6C5D130E6D59E0
:1006D800D8A0F8D7F2C0ADFF000E6F6F000E6E6F96
:1006E80002D06E4B6F2B880E6E5D130E6F59D8A01B
:1006F800F8D7F0C0ADFF000E716F000E706F880E56
:10070800705D130E7159D8B003D0704B712BF7D7A9
:10071800730EAD6E000E736F000E726F880E725DF1
:10072800130E7359D8B003D0724B732BF7D77C0EC6
:10073800AD6E000E756F000E746F02D0744B752B82
:10074800880E745D130E7559D8A0F8D7EEC0ADFFAA
:10075800000E776F000E766F02D0764B772B880EDF
:10076800765D130E7759D8A0F8D7ECC0ADFF000E10
:10077800796F000E786F02D0784B792B880E785DF0
:10078800130E7959D8A0F8D7EAC0ADFF000E7B6FD9
:10079800000E7A6F02D07A4B7B2B880E7A5D130E8F
:1007A8007B59D8A0F8D7E8C0ADFF000E7D6F000ECA
:1007B8007C6F02D07C4B7D2B880E7C5D130E7D599F
:1007C800D8A0F8D7E6C0ADFF000E7F6F000E7E6F91
:1007D80002D07E4B7F2B880E7E5D130E7F59D8A0EA
:1007E800F8D7E4C0ADFF000E816F000E806F02D015
:1007F800804B812B880E805D130E8159D8A0F8D7C5
:10080800E2C0ADFF000E836F000E826F02D0824BF4
:10081800832B880E825D130E8359D8A0F8D7E0C0C9
:10082800ADFF000E856F000E846F02D0844B852BC0
:10083800880E845D130E8559D8A0F8D7DEC0ADFFA9
:10084800000E876F000E866F02D0864B872B880EAE
:10085800865D130E8759D8A0F8D7FCC0ADFF000EEF
:10086800896F000E886F880E885D130E8959D8B07D
:1008780003D0884B892BF7D77C0EAD6E000E8B6F9B
:10088800000E8A6F02D08A4B8B2B880E8A5D130E5E
:100898008B59D8A0F8D732C0ADFF000E8D6F000E6F
:1008A8008C6F02D08C4B8D2B880E8C5D130E8D595E
:1008B800D8A0F8D730C0ADFF000E8F6F000E8E6F36
:1008C800880E8E5D130E8F59D8B003D08E4B8F2BA8
:1008D800F7D72F0EAD6E000E916F000E906F02D0FD
:1008E800904B912B880E905D130E9159D8A0F8D794
:1008F8002EC0ADFF000E936F000E926F02D0924B88
:10090800932B880E925D130E9359D8A0F8D72CC05C
:10091800ADFF000E956F000E946F880E945D130E58
:100928009559D8B003D0944B952BF7D72F0EAD6EB1
:10093800000E976F000E966F02D0964B972B880E7D
:10094800965D130E9759D8A0F8D72AC0ADFF000EB0
:10095800996F000E986F02D0984B992B880E985D6E
:10096800130E9959D8A0F8D728C0ADFF000E9B6F79
:10097800000E9A6F880E9A5D130E9B59D8B003D05B
:100988009A4B9B2BF7D77C0EAD6E000E9D6F000E19
:100998009C6F02D09C4B9D2B880E9C5D130E9D591D
:1009A800D8A0F8D7DCC0ADFF000E9F6F000E9E6F79
:1009B80002D09E4B9F2B880E9E5D130E9F59D8A088
:1009C800F8D7DAC0ADFF000EA16F000EA06F02D0FD
:1009D800A04BA12B880EA05D130EA159D8A0F8D763
:1009E800D8C0ADFF000EA36F000EA26F02D0A24BBD
:1009F800A32B880EA25D130EA359D8A0F8D7D6C092
:100A0800ADFF000EA56F000EA46F02D0A44BA52B5E
:100A1800880EA45D130EA559D8A0F8D7D4C0ADFF91
:100A2800000EA76F000EA66F02D0A64BA72B880E4C
:100A3800A65D130EA759D8A0F8D7D2C0ADFF000EF7
:100A4800A96F000EA86F02D0A84BA92B880EA85D2D
:100A5800130EA959D8A0F8D7D0C0ADFF000EAB6FC0
:100A6800000EAA6F02D0AA4BAB2B880EAA5D130EFC
:100A7800AB59D8A0F8D738C0ADFF000EAD6F000E47
:100A8800AC6F02D0AC4BAD2B880EAC5D130EAD59DC
:100A9800D8A0F8D736C0ADFF000EAF6F000EAE6F0E
:100AA80002D0AE4BAF2B880EAE5D130EAF59D8A057
:100AB800F8D734C0ADFF000EB16F000EB06F02D092
:100AC800B04BB12B880EB05D130EB159D8A0F8D732
:100AD800FDC0ADFF000EFF6F000EFE6F000EFD6F34
:100AE800000EFC6F1200000EFF6F1200FF51000A8B
:100AF800D8B470EF00F0010AD8B477EF00F0030A19
:100B0800D8B482EF00F0010AD8B48DEF00F0070ADC
:100B1800D8B498EF00F0010AD8B4A0EF00F0030AA7
:100B2800D8B4B0EF00F0010AD8B4C3EF00F00F0A50
:100B3800D8B4D3EF00F0010AD8B4E3EF00F0030A09
:100B4800D8B4F3EF00F0010AD8B403EF01F0070AB4
:100B5800D8B40BEF01F0010AD8B418EF01F0030A7A
:100B6800D8B423EF01F0010AD8B433EF01F01F0A1B
:100B7800D8B443EF01F0010AD8B453EF01F0030AE7
:100B8800D8B463EF01F0010AD8B471EF01F0070A95
:100B9800D8B481EF01F0010AD8B491EF01F0030A4B
:100BA800D8B4A1EF01F0010AD8B4B1EF01F00F0AEF
:100BB800D8B4BCEF01F0010AD8B4CDEF01F0030AB4
:100BC800D8B4D3EF01F0010AD8B4E3EF01F0070A73
:100BD800D8B405D4010AD8B412D4030AD8B41FD49F
:100BE800010AD8B42CD43F0AD8B437D4010AD8B4EF
:100BF80044D4030AD8B451D4010AD8B45ED4070A3D
:100C0800D8B46BD4010AD8B473D4030AD8B481D445
:100C1800010AD8B486D40F0AD8B48BD4010AD8B440
:100C280090D4030AD8B49DD4010AD8B4AAD4070A28
:100C3800D8B4B7D4010AD8B4C4D4030AD8B4D1D428
:100C480052D7000E0001B36F000EB46F000EB56FDF
:100C5800000EB66F000EB76F000EB86F000EB96FBA
:100C6800000EBA6F000EBB6F000EBC6F000EBD6F9A
:100C7800000EBE6F000EBF6F000EC06F000EC16F7A
:100C8800000EC26F000EC36F000EC46F000EC56F5A
:100C9800000EC66F000EC76F000EC86F000EC96F3A
:100CA800000ECA6F000ECB6F000ECC6F000ECE6F19
:100CB800000ECD6F000ECF6FECEC06F0E7EC06F0FF
:100CC800E0EC06F0CCEC06F0D8EC06F09EAAFED7D5
:100CD80065EC00F0FBD7FACF01F0FBCF02F0E9CFCB
:100CE80003F0EACF04F0E1CF05F0E2CF06F0D9CF68
:100CF80007F0DACF08F0F3CF09F0F4CF0AF0F6CF17
:100D08000BF0F7CF0CF0F8CF0DF0F5CF0EF03AC09E
:100D18000FF03BC010F03CC011F03DC012F012C003
:100D28003DF011C03CF010C03BF00FC03AF00EC0CF
:100D3800F5FF0DC0F8FF0CC0F7FF0BC0F6FF0AC0A7
:100D4800F4FF09C0F3FF08C0DAFF07C0D9FF06C0E7
:100D5800E2FF05C0E1FF04C0EAFF03C0E9FF02C0EB
:100D6800FBFF01C0FAFF3A92110000EED0F0300EFE
:100D7800EE6AE806FDE100EE28F0120EEE6AE806DB
:100D8800FDE13A903A92000EF86E000125EF06F068
:100D9800000EB86E240EAC6E900EAB6E190EAF6ED0
:100DA8003F0E0F013A171200C78EC78C200EC66E71
:100DB8009E968B848B961200200E926EC20E936EB6
:100DC800D00E946E1200C70ED56E3D0ED66E120070
:060DD800560ED36E12005E
:020000040020DA
:08000000FFFFFFFFFFFFFFFF00
:020000040030CA
:0E000000FF281F3CFF3F81FF0FC00FE00F40A5
:00000001FF
